:020000040800F2
:1000000098200020BD02000875600008DF0300088A
:1000100071600008890E00087D7100080000000072
:10002000000000000000000000000000CF020008F7
:100030000D120008000000002B030008996400085E
:10004000D7020008D7020008D7020008D70200082C
:10005000D7020008D7020008D7020008D70200081C
:10006000D7020008D7020008D7020008D70200080C
:10007000D7020008D7020008F5110008D7020008CF
:10008000D702000800000000790B0008D702000822
:10009000D7020008D7020008D7020008D7020008DC
:1000A000D70200085D650008D7020008D7020008E3
:1000B000D7020008D702000869650008D7020008C7
:1000C000D7020008D7020008D7020008D7020008AC
:1000D000D702000871710008D7020008D702000893
:1000E000D7020008D7020008D7020008D70200088C
:1000F000D7020008D7020008D7020008000000005D
:1001000000000000D702000800000000D70200082D
:10011000D702000800000000D7020008D70200083C
:10012000D7020008D7020008D7020008D70200084B
:10013000D70200080000000000000000D7020008FD
:10014000D7020008D70200080000000000000000ED
:10015000000000000000000000000000000000009F
:10016000000000000000000000000000D7020008AE
:10017000D70200080000000000000000000000009E
:1001800000000000D702000800000000000000008E
:10019000000000000000000000000000000000005F
:1001A0000000000000000000D7020008D70200088D
:1001B000D7020008D7020008D7020008000000009C
:1001C0000000000001120008000000000000000014
:1001D000D7020008D702000800F002F800F05EF82D
:1001E00014A696E8000CB244B344DA4501D100F0FD
:1001F00055F8BAE80F000FA696E83000A5EB040505
:1002000004EB0607AAEB0704A7F101074FEA15154F
:100210004FEA3414A4F10104AC4201D300F03EF8DB
:1002200013F0010F18BFFB1A43F0010300F001F8AF
:10023000DBE7184790B10000B0B10000103A24BFCE
:1002400078C878C1FAD8520724BF30C830C144BF3B
:1002500004680C6070470000704700000023002411
:1002600000250026103A28BF78C1FBD8520728BFC6
:1002700030C148BF0B607047642900F0BB8178290A
:1002800000F0F481002070471FB50AF066FF9DE87A
:10029000030000F0E3FA1FBD10B510BD00F0C0FB75
:1002A0001146FFF7F1FF00F03DFC00F0DEFB03B468
:1002B000FFF7F2FF03BC00F00FFC00000948804785
:1002C00009480047FEE7FEE7FEE7FEE7FEE7FEE738
:1002D000FEE7FEE7FEE7FEE704480549054A064B50
:1002E0007047000049650008D9010008981A0020ED
:1002F00098200020981C0020981C0020EFF310800C
:1003000072B6704780F310887047434A1368012B18
:1003100004D04FF001031360404A1060404A11605E
:1003200040484FF0805101607047EFF3108272B681
:100330003948016851B34FF0000101603748016846
:1003400091B1EFF309811EF0100F08BF21ED108B62
:1003500021E9F00F4FF000041EF0100F08BF012438
:1003600041F8044D006801602D490968096808C911
:10037000B1E8F00F002B18BFB1EC108B81F30988A6
:100380004EF0100E002B18BF2EF0100E82F31088C6
:100390004EF0040E704722490860EFF3148222F0F9
:1003A000040282F314881D494FF0000008601A49C6
:1003B0004FF0010008601C484FF47F01D0F8002086
:1003C00041EA0201016017484FF08051016017486F
:1003D0000068006880F3088861B662B670471EF056
:1003E000040F0CBFEFF30880EFF3098020E9F00F52
:1003F00040F804ED40F804ED1EF0040F0CBF80F34C
:10040000088880F3098800B508F036F85DF804EB39
:100410004EF0040E704700008C1A002000180020D7
:100420000818002004ED00E020ED00E008ED00E0F9
:1004300070B5064600F0F6F9056806F10B0020F0ED
:100440000704B4429CBF002070BD2B466A68BAB155
:100450001068A04210D304F1080188423CBF5068E4
:10046000586007D35168101941601168091B016079
:1004700058601460101D70BD13465268002AE7D101
:100480002146284600F0D6F90028DED170BD70B5AF
:100490000446051F00F0C6F90068002C14BF44682C
:1004A00070BD002C18BFAC423CBF20466468F8D336
:1004B00001680A18AA4218BF456003D12A68054698
:1004C0001144016028684119A1421CBF6C6070BDD5
:1004D0006168696021680844286070BD53EA020CB5
:1004E00000F069802DE9F04B4FF00006002B1FBF94
:1004F000B3FA83F503FA05F424FA05F65E4012BF59
:100500001643B2FA82F502FA05F4C5F120051EBFC2
:1005100022FA05FC44EA0C04203556EA044C4FEA62
:10052000144418BF641C4FF000084FF000099042BB
:1005300071EB030C39D3002919BFB1FA81F701FA25
:1005400007F6B0FA80F700FA07F6C7F120071EBFDA
:1005500020FA07FC46EA0C062037B6FBF4FCA7EBB2
:100560000507103F07F01F0BCBF120062CFA06F60B
:100570000CFA0BFB44BFB3460026202FA4BF5E46F7
:100580004FF0000B5BEA060C08BF4FF0010B19EBB4
:100590000B0948EB0608ABFB027C06FB02CC0BFB0D
:1005A00003CCC01B71EB0C01C1E70B460246414670
:1005B0004846BDE8F08B13B5084318BF4FF0FF3035
:1005C0000146AFF30080BDE81C4070470FB41CB576
:1005D000074B06AA7B4469460090059800F0DDF9B8
:1005E0000020694600F0ECF91CBC5DF814FB00002B
:1005F000E90300002DE9F041064600241068752942
:10060000314616A510D0AFF30080002802DA404230
:1006100013A507E031688A0701D512A502E0490752
:1006200004D511A5012401E0AFF3008000210A22C6
:1006300006F1240709E0B0FBF2FCB0FBF2F302FB89
:100640001C00303078541846491C0028F3D123464A
:100650002A463046BDE8F04100F040B900000000F5
:100660002D0000002B0000002000000070B50446A3
:100670000D4621461068AFF300802188090502D598
:100680000F4A7A4402E00E4A7A440E32002104F105
:10069000240305E000F00F060009965D5E54491C36
:1006A0000028F7D120780023000704D5702D02D050
:1006B00009B1022311322046BDE8704000F00EB9A6
:1006C000F8AA00002DE9F0410F46054600202862F7
:1006D0002846E968884770B3252805D0D5E9012167
:1006E0009047286A401CF2E7E968284600268847B8
:1006F0006C2804460AD0682C08D04C2C35D06A2CC3
:1007000031D0742C31D07A2C2FD016E0E96806460F
:1007100028468847B042044608D16C2E23D04FF4B7
:1007200080662846E9688847044606E06C2E03D0B8
:100730004FF4807601E01EE04026E4B1A4F14100D0
:10074000192802D8203446F400663A462146284645
:100750002E60FFF791FD60B1012808D0FF1D27F042
:1007600007070837B4E78026DBE70026D9E73F1DF7
:10077000AEE72046B2E7286ABDE8F08102F0FF0349
:1007800043EA032242EA024200F002B84FF00002BC
:100790000429C0F0128010F0030C00F01B80CCF193
:1007A000040CBCF1020F18BF00F8012BA8BF20F801
:1007B000022BA1EB0C0100F00DB85FEAC17C24BF55
:1007C00000F8012B00F8012B48BF00F8012B7047FF
:1007D0004FF0000200B5134694469646203922BFDA
:1007E000A0E80C50A0E80C50B1F12001BFF4F7AF25
:1007F000090728BFA0E80C5048BF0CC05DF804EB07
:10080000890028BF40F8042B08BF704748BF20F874
:10081000022B11F0804F18BF00F8012B7047704772
:100820007047704700487047A0000020704770472D
:100830007047704738B504460A4600206946AFF352
:100840000080002808BF38BD02460099204600F00D
:10085000C5F8012038BD012000F0DAB8F8B5AFF3D3
:100860000080054600200C460C2000BF0646A81953
:10087000A0420DD9324669460020AFF30080070040
:1008800008BF00F0C5F80098A04218BF0546C4197B
:10089000FFF7C8FF05600746F01D20F00700461966
:1008A000284600F00AF8B44208BFF8BDA21B314642
:1008B0003868BDE8F84000F091B80021016041605F
:1008C00070470C20704710B500F084F8006810BD28
:1008D00010B5044600F07EF8046010BD2DE9F04725
:1008E0000D4699469246044600F1240801688806A0
:1008F00004D5E06921F01001216000E00120A84248
:1009000001DD471B00E00027A1697A1902EB09000D
:10091000081AA0612078C00602D42046AFF30080F8
:10092000002608E0D4E901211AF806009047206A61
:10093000401C761C20624E45F4DB2078C0060AD5A8
:100940002046AFF3008006E0D4E901213020904733
:10095000206A401C2062381EA7F10107F4DC07E082
:10096000D4E9012118F805009047206A401C206254
:10097000281EA5F10105F3DC2046AFF300802078A6
:10098000000602D50220BDE8F0870120FBE7000049
:1009900001694A1C02610878704700B58FB0CDE943
:1009A00001310021059105497944CDE90310114633
:1009B0006846FFF787FE0FB000BD0000E5FFFFFFB0
:1009C0000A6802F8010B0A6070470000004870478F
:1009D00098000020004870479800002003464068B7
:1009E0008C46002818BF88423CBF03464068F8D3B5
:1009F00018681844884207D00CF1030020F0070063
:100A0000001D411A521A0146081D0A60FFF73FBD3A
:100A100010B500F039F8BDE8104000F02FB870476D
:100A20007546FFF7D3FFAE4605006946534620F0F2
:100A30000700854618B020B5FFF74EFCBDE8204002
:100A40004FF000064FF000074FF000084FF0000B8A
:100A5000AC46ACE8C009ACE8C009ACE8C009ACE8F9
:100A6000C00921F007018D46704710B50446AFF369
:100A700000802046BDE81040FFF719BC002801D0D7
:100A800000F02AB87047000010B5012805D00021F9
:100A900003A000F027F8012010BD09A1F8E700002D
:100AA00053494752544D454D3A204F7574206F6657
:100AB0002068656170206D656D6F727900000000BF
:100AC0003A2048656170206D656D6F727920636FA3
:100AD000727275707465640001491820ABBEFEE740
:100AE0002600020070B505460C460A2000E06D1C89
:100AF00000F011F835B128780028F8D102E0641C24
:100B000000F009F814B120780028F8D1BDE8704051
:100B10000A20AFF3008008B569468DF80000032075
:100B2000ABBE08BD80B582B0FFF7E8FB07F070FCF4
:100B300008F024F908F0F0FA08F040FA4BF21C3003
:100B400047F609414FF0140C4FF00A0EC0F60000B2
:100B5000C0F6000100224FF40073CDE900EC08F06C
:100B6000E5FA08F083FC08F0DFFA08F0A3FB08F0D0
:100B7000BBFA002002B080BD80B540F2B830C2F2AE
:100B8000000001F06FFA40F22440C2F20000BDE81C
:100B9000804001F067BA0000B0B5016804468A6879
:100BA0008868C0074FF0000031D012F0020218BF71
:100BB000B0BD886800F00D0001281FD188684FF68D
:100BC000C072C7F6FF7210400230886003200860D0
:100BD00002F02CF821688968C90704BF0020B0BD65
:100BE000054602E08068C00712D002F01FF8411BE2
:100BF00020680329F6D38168C907F3D0E06D40F07F
:100C00001000E065206E40F0010020660120B0BDBC
:100C10000020B0BD70B582B004460020019021686C
:100C20008A68D20711D14FF6C076C7F6FF7688687A
:100C300006F17F0210420BD0E06D40F01000E0653D
:100C4000206E40F001002066012002B070BD00BFA0
:100C50008868304040F00100886040F20830C5F2FA
:100C600000000068000221D401F0E0FF21680A685A
:100C7000D20717D1054602E00868C00712D188687C
:100C8000C00704D18868304040F00100886001F05E
:100C9000CDFF401B21680328EED30868C007EBD1C5
:100CA000CAE700BF002002B070BD00BF40F24C0098
:100CB000C2F20000006842F663518009C0F23E5162
:100CC000A0FB0101880900EB40000C2101EB800032
:100CD000019001980028C7D001980138019001982F
:100CE0000028C1D001980138019001980028BBD09C
:100CF00001980138019001980028B5D00198013879
:100D0000019001980028E7D1AEE700002DE9F043FB
:100D100083B000F017FC40F228304CF6CD4140F291
:100D20000C64C2F20000C3F64C61C2F20004C16060
:100D3000204600214FF0000904F0E0F92046002190
:100D400003F02CFC204604214FF0040804F0D6F9EF
:100D50002046042103F022FC2046082104F0CEF9AD
:100D60002046082103F01AFC20460C2104F0C6F9A5
:100D70002068C16841F00101C16000F087F84BF2C2
:100D80001834C0F6000441F211210126C0F600011A
:100D900020460022FE23CDE9009608F0C7F940F274
:100DA0005C15C2F2000546F2394128600227C0F600
:100DB0000001204600224FF40073CDE9007608F0D0
:100DC000B5F946F23D1168600327C0F600012046E0
:100DD00000224FF40073CDE9007608F0A7F941F244
:100DE0000951A860C0F60001204600224FF40073AC
:100DF000CDE9009608F09AF94AF295012861642736
:100E000019A0C0F6000100224FF40073CDE900875D
:100E100008F08CF9E86016A00021002207F0E4FE3B
:100E2000686114A00021002207F0DEFEA86113A073
:100E30000021002207F0D8FEE86140F26830C2F2DB
:100E4000000005F091F9286808F010FBE86808F048
:100E50000DFB686808F00AFBA86808F007FB002093
:100E600003B0BDE8F08300BF75617274000000003C
:100E7000616463007370656564000000706F73697E
:100E800074696F6E00000000FEE700002DE9F0417C
:100E900082B040F28018C2F2000808F1040448F25F
:100EA000C111C0F600012046002206F0ADF908F19C
:100EB0002C0548F2CD11C0F600012846002206F0AC
:100EC000A3F908F1540648F2DD11C0F600013046DE
:100ED000002206F099F940F29037C2F2000748F27A
:100EE000E911C0F600013846002206F08DF947F2FC
:100EF000B912C0F600022046032106F081F947F23C
:100F0000D912C0F600022846032106F079F947F20B
:100F1000F912C0F600023046032106F071F947F2DB
:100F2000FD12C0F600023846032106F069F920469A
:100F300006F080F9284606F07DF9304606F07AF989
:100F4000384606F077F947F27D21062707A0C0F65C
:100F5000000100226423009708F0B4FBC8F80000E9
:100F600002B0BDE8F04108F0F5BB00BF62757474D3
:100F70006F6E000090ED020A0139052900F2FA8037
:100F800090ED002A90ED011A90ED033ADFE801F0B0
:100F9000049E4E6A32C400BFB0EE084AB0EE445A16
:100FA000B0EE446AB0EE447AB1EEC55AB1EEC66A0C
:100FB000B1EEC77A20EE055A33EE033A20EE077AF7
:100FC00085EE035A87EE037A26EE023AB1EEC44A62
:100FD00024EE022A33EE013A31EE421A25EE033AAC
:100FE00027EE014A34EE031AB4EE401AF1EE10FA7D
:100FF0005DDC66E0B0EE085AB0EE454AB0EE456AF8
:10100000B1EEC44AB1EEC66A33EE037A26EE406A08
:1010100086EE076A20EE044AB1EEC55A25EE022A92
:1010200021EE044A32EE011A36E000BFB0EE084A63
:10103000B0EE445AB1EEC55A33EE036A20EE055ABB
:1010400085EE065AB0EE447AB1EEC77AB1EEC44AE4
:1010500020EE044A27EE022A21EE044A32EE411A1B
:101060004EE000BFB0EE085AB0EE454AB0EE456A19
:10107000B1EEC44AB1EEC66A20EE066A33EE037AD8
:1010800086EE076A24EE404AB1EEC55A25EE022AE2
:1010900021EE044A31EE421A84EE034A26EE013A6A
:1010A00034EE031AB4EE401AF1EE10FA09DD84EEC4
:1010B000011A20EE014A33EE041A83EE011A20EEE3
:1010C000013A80ED044A80ED053A7047B0EE084AD7
:1010D000B0EE445AB1EEC55A20EE055A33EE036A1B
:1010E00085EE065AB0EE446AB1EEC66AB1EEC44A65
:1010F00024EE404A26EE022A21EE044A32EE011A7C
:1011000084EE033A25EE014A34EE031AB4EE401A97
:10111000F1EE10FACBDCD4E7B0EE084AB0EE445A58
:10112000B0EE446AB0EE447AB1EEC55AB1EEC66A8A
:10113000B1EEC77A33EE033A25EE405A20EE077A35
:1011400085EE035A87EE033A26EE026AB1EEC44AF0
:1011500024EE022A36EE016A32EE411A25EE064AE4
:1011600023EE013A34EE031AB4EE401AF1EE10FA0F
:10117000A7DD9CE79FED054AB0EE443A34EE031A32
:10118000B4EE401AF1EE10FA91DC9AE7000000008C
:1011900040F2CC20C2F2000090ED052AB5EE402AC4
:1011A000F1EE10FA06D14FF07E51B0EE402A4161C7
:1011B00002E000BF90ED032A40F25001C2F20001AC
:1011C00091ED003A90ED044AB7EE005A35EE435ADD
:1011D00030EE422A25EE044A23EE022A32EE042A99
:1011E00082EE011A80ED030A80ED042AB0EE410A76
:1011F0007047000040F2F040C2F2000001F0D2BAA5
:1012000040F29040C2F2000001F0CCBA70470000FA
:1012100040F25C1640F20C3840F200450027C2F262
:101220000006C2F20008C4F6000502E0F06907F00B
:10123000FDFC002470694FF0FF3107F015FD4046BA
:1012400000F0FAFA28464FF4806101F0E1FC00F06A
:101250001BF80137F8B2052804D00134E0B20A289F
:10126000E8D1E3E7B06907F0E1FC00270134E0B220
:101270000A28DFD1DAE70000EFF3108072B600BF72
:10128000FEE7000000000000F0B581B02DED088BF6
:10129000EFF3108072B606F009F940F2CC27C2F2E3
:1012A0000007C0F58050397800EE100A0129B8EE29
:1012B000C00A03D197ED011A04E000BF0120B0EE8F
:1012C000401A38709FED8C2A30EE411AB4EE421A63
:1012D000F1EE10FA02DAB868013008E09FED872AD3
:1012E000B868B4EE421AF1EE10FA01DD0138B860C8
:1012F0009FED831A9FED832A4FF4B47120EE011AFB
:10130000484321EE021A02EE100A40F22834B8EEE9
:10131000C22AC2F2000431EE021A072087ED010A48
:1013200084ED0A0A84ED0B1A00F02EF984ED0C0A04
:1013300008F038FF94ED0C1AB0EE408AB0EE410A86
:1013400008F0D8FF386C97ED11AA97ED12BAB0EEFD
:10135000409A09F067FE3AEE0B0A054610EE100AB5
:101360000E4609F05FFE9FED600B53EC102B09F069
:101370006DFC2A46334609F075F902460B4609F022
:1013800071F99FED5B0B53EC102B09F01FFA09F07C
:1013900037F9B0EE080AB0EE401AF864B1EEC11A9F
:1013A00081EE000A3AEE4B1A40F20000C2F2000051
:1013B000B7EE004AD7ED0F1AD7ED0E0A97ED066A81
:1013C00097ED077A21EE000A97ED131A87ED140ABC
:1013D00029EE002A21EE083A28EE000A21EE091A29
:1013E00033EE022A30EE410A90ED001A90ED013AF8
:1013F00034EE415A21EE000A34EE431A21EE211A4E
:1014000023EE022A25EE205A32EE011A94ED032A29
:1014100035EE000A40F2100084ED050A87ED0E0A51
:1014200030EE420AC2F2000030EE062A90ED056A64
:1014300084ED041AB4EE462A87ED0F1A94ED023AB1
:1014400090ED034A90ED045AD0ED080AF1EE10FA3F
:10145000C8BFB0EE462AB1EE466AB4EE462AF1EEB7
:1014600010FAB8BFB0EE462A87ED062A25EE022A0A
:1014700024EE000A31EE431A30EE020A31EE072A5A
:10148000B4EE602AB1EE603AF1EE10FAC8BFB0EEE9
:10149000602AB4EE432AF1EE10FAB8BFB0EE432A48
:1014A00090ED073A90ED064A87ED072A23EE022ACF
:1014B00024EE011A31EE021A29EE002A21EE083A32
:1014C00028EE000A21EE091A33EE422A31EE000A14
:1014D000204684ED002A84ED010A04F055FE62B630
:1014E000BDEC088B01B0F0BD000000000000E0BFC3
:1014F0000000000000000840000080C4000080449C
:101500000000B4430000803910B50820FEF790FFBA
:1015100004464FF07C500021C4E90001204604F04D
:1015200033FE4FF4FA6007F035FF05F0BFFF40F2DD
:1015300020320146C2F2000220461160BDE8104090
:10154000FEF7A5BFB0B540F2B834C2F200042046A1
:101550007F2100F0B1F940F22445C2F2000528468F
:101560007F2100F0A9F9204600F0A6FC284600F0F3
:10157000A3FC2068416841F020014160286841686F
:1015800041F020014160B0BD2DE9F0472DED048B05
:10159000044610EE100AB0EE408A09F043FD9FEDBC
:1015A000840B054653EC102B0E4609F082FD58B90A
:1015B0009FED810B284653EC102B314609F080FD3E
:1015C00010B19FED799B8AE09FED7B0B9FED7C9B9B
:1015D00053EC102B2846314609F072FD48B99FEDB7
:1015E0007A0B284653EC102B314609F069FD002890
:1015F00075D19FED750B284658EC107B31463A4665
:10160000434609F05DFD58B99FED730B284653EC36
:10161000102B314609F054FD10B19FED6D9B5EE03B
:101620009FED6D0B284653EC102B314609F048FD19
:1016300060B99FED6D0B284653EC102B314609F035
:101640003FFD18B19FED669B49E000BF9FED660B23
:10165000284653EC102B314609F032FD60B99FED5E
:10166000660B284653EC102B314609F029FD18B1C2
:101670009FED5F9B33E000BF9FED5F0B284653EC6F
:10168000102B314609F01CFD40B99FED5D0B28463B
:1016900053EC102B314609F013FD00BB28463146B0
:1016A0003A46434609F0FEFC9FED550B074653ECC6
:1016B000102B2846314609F003FD53A19FED401B36
:1016C000002818BF083191ED000B52EC113B51EC92
:1016D000100B002F1CBF0A46034642EC193B00EEDC
:1016E000104AB8EEC00A20EE080A30EE000A10EEEA
:1016F000100A09F097FC9FED480B53EC102B09F0F2
:10170000A5FA9FED470B53EC102B09F09FFA53EC11
:10171000192B09F099FB9FED441B9FED452B41ECE4
:10172000100B59EC118B57EC12AB00BF51EC100BA6
:1017300008F066FF044609F075FC42464B46064633
:101740000D4641EC180B09F0A6FC48B1304629467D
:1017500052463B4608F086FF41EC100BE6E700BF1F
:101760003046294652463B4609F09CFC98B900BFDA
:1017700051EC180B42464B4608F074FF08F040FF4E
:10178000044609F04FFC52463B4641EC180B09F069
:1017900097FC0028ECD100EE104ABDEC048BBDE8AC
:1017A000F08700BF00BF00BF00000080C2F51240FC
:1017B000713D0AD7A370E53F48E17A14AE47F93F7F
:1017C000000000E07A141340EC51B81E85EB034092
:1017D000000000A0999913401F85EB51B81E0B40E3
:1017E0000000008014AE13401F85EB51B81E11405D
:1017F00000000020AE471340AE47E17A14AE14401B
:101800003D0AD7A3703D1840000000E07A14134051
:1018100000000000000000004AD8124DFB210940E2
:10182000000000000000303F4AD8124DFB21194053
:101830004AD8124DFB2119C070B540F2B835C2F23A
:1018400000050446284640F20F1100F019FB064639
:101850002846092100F014FB054640F22440C2F25C
:101860000000092100F00CFB40F21001C2F200015F
:10187000D1E900238968801A00EE100AF01A02EEFE
:10188000100A681A9FED0B1A03EE100AB8EEC00A90
:10189000B8EEC22AB8EEC33A20EE010A22EE012ABF
:1018A00023EE011A84ED000A84ED012A84ED021A68
:1018B00070BD00BFFFFF033BB0B582B004460020FF
:1018C000019094F85800012802D1022002B0B0BD66
:1018D000012084F8580020460D46FFF75DF9E16DC0
:1018E00010B141F010014BE041F20212914302317C
:1018F000E16521684FF6C073D1F808C0C3F6FF73E5
:1019000003EA0C0305F080454DF601622B44C0F25A
:10191000040203F100438B608B68B3F1FF3F2BDCC3
:10192000019B01330193019B93421DD88B68B3F156
:10193000FF3F21DC019B01330193019B934213D8AC
:101940008B68B3F1FF3F17DC019B01330193019BCF
:10195000934209D88B68B3F1FF3F0DDC019B013343
:101960000193019B9342D7D9E06D40F0100020F025
:101970000201012004E000BFE16D012262F30101D8
:10198000E165002184F8581002B0B0BD7047000036
:101990002DE9F04181B00022009290F85820012AF0
:1019A00006D14FF0020C604601B0BDE8F08100BFE7
:1019B0004269012380F8583012B10B6A012B21D102
:1019C0004A68092A1AD10A688B6A4FF4785606EADF
:1019D000524223B1CE6A03F07C0333431A43D0F85A
:1019E000008044F20005D8F84C60C0F210452E404B
:1019F0001643C8F84C6042662EE000BFD0F8008065
:101A00002AE000BF846E1CB1456E00220AE000BFD0
:101A10008D6A5A1E25B1CE6A05F07C052E433243ED
:101A200000251C46D1E90036D0F8008006F01F06DC
:101A3000C3F38463B3401A43661E42EA0502C0E959
:101A4000192609D1D8F84C6044F20005C0F21045BF
:101A50002E403243C8F84C20D8F80820120714D47E
:101A6000D8F80C2091F8256091F8265022F4401205
:101A70004FEA455516B12A4305E000BF91F82460AE
:101A800042EA06522A43C8F80C20D8F80820D8F8B1
:101A9000086002F0040206F00806921916D18A6A5C
:101AA000C2B1CA6AB2B191F82520012A1CD1C26D17
:101AB0004FF0010C42F02002C26591F83060D8F876
:101AC0001020012E1ED022F0020223E04FF0000C65
:101AD000E9E000BF91F82560D8F80C20012E05D16F
:101AE00042F0007204E000BFD8F80C2022F000722F
:101AF0004FF0000CC8F80C2091F83060D8F8102096
:101B0000012EE0D1D1E90D6522F4FF7232432A4360
:101B100042F00202C8F810200D68042608F11402F1
:101B200006EAD55EC5F340668C6852F82660C5F3B8
:101B300004550727AF40B4F1004F26EA070605D148
:101B400042F80E60126842F0004206E0AC403443B6
:101B500042F80E40126822F00042C8F81420D1E981
:101B60000425D8F80C60042A70D1D8F86020D8F881
:101B700060200C68C2F3846694FAA4F52246B5FA94
:101B800085F5C4F3846E6FF3DF422C46002A08BF4C
:101B90007446A6424FF6FF74C0F207040ED1D8F87F
:101BA000602022F00042C8F860200D6805EA0402B7
:101BB000C5F3846E95FAA5F5B5FA85F5D8F8646095
:101BC000D8F86460002AC6F384662F4608BF7746BB
:101BD000BE420ED1D8F8642022F00042C8F864203A
:101BE0000D6805EA0402C5F3846E95FAA5F5B5FA09
:101BF00085F5D8F86860D8F86860002AC6F384666E
:101C00002F4608BF7746BE420ED1D8F8682022F092
:101C10000042C8F868200D6805EA040295FAA5F4A8
:101C2000C5F3846EB4FA84F5D8F86C40D8F86C40EB
:101C3000002AC4F3846408BF7546AC4233D1D8F897
:101C40006C2022F00042C8F86C202CE0062707EA3E
:101C5000960705FA07FE0E6808F1600555F8224060
:101C60004FF20007C0F2FF3706F0F8463C404EEA5C
:101C70000607274347F0004745F822700A698F6935
:101C800055F8226026F08076374345F822700A69BD
:101C90000F7F55F82260012F26F0007608BF06F16D
:101CA000007645F82260D8F808200D68D2074ED19A
:101CB000CF684FF6FF73D8F8B0602A4607F01804D3
:101CC000C0F207036FF3DF42E34096432B403343F8
:101CD0000026C4F27F06B742C8F8B03037D18AB1C7
:101CE00095FAA5F2B2FA82F2013202F01E03092B34
:101CF00002F01F020FD80123934002EB420243EA95
:101D0000025214E0012202EB956202F01E030A2B3C
:101D100002F01F02EFD301230027934002EB42029F
:101D2000CFF6206707EB02521A4342F00072C2F36B
:101D3000406708EB87078B687E69C2F3045207256A
:101D40009540AE4303FA02F232437A610D680021F6
:101D5000C8F208010D4216D040F20831C5F2000168
:101D60000C680022CCF22132954204F0E07204D0DB
:101D70001023C9F2C0039D420CD1B8F1A04F08BF97
:101D800014F4000316D0002180F85810604601B00A
:101D9000BDE8F0810023CCF252739D4242D1002372
:101DA000B3EB126F3ED1A1F502739845EBD04FF023
:101DB000807345E00B6823F0E0731A4342F400029D
:101DC0000A6040F24C01C2F20001096842F6635217
:101DD0008909C0F23E52A1FB0212910901EB4101B7
:101DE000182202EB8101009100990029CBD000BF9D
:101DF00000990139009100990029C4D00099013956
:101E0000009100990029BED00099013900910099F4
:101E10000029B8D000990139009100990029E7D133
:101E2000B1E700BFA1F502739845ACD00023CCF612
:101E300084339D4208BF14F48003A4D14FF480037F
:101E40000F6827F0E0773B431A430A609BE70000E6
:101E5000006840F20011C5F20001884218BF7047C7
:101E600040F25C11C2F20001086A013008280862E1
:101E700004D1486900220A6206F0D8BE704700000B
:101E8000006840F20F12914210D040F21B32914292
:101E900008D040F21522914214BF80218821405879
:101EA000704700BF8C214058704700BF84214058C4
:101EB000704700007047000070B540F20014C5F292
:101EC0000004D4F8085201688A68120744BF02204F
:101ED00070BDCA68C96C11F4C07F07D1002A05D44F
:101EE000C16D41F02001C165012070BD90F858100E
:101EF000012904BF022070BD012180F85810064658
:101F0000FEF788FE20B1002186F8581070BD00BF92
:101F1000F16D3046C90546BF016E21F00801002170
:101F20000166C16D43F20102914301F58051C16523
:101F3000016805F01F02A14206D12AB160230B609F
:101F4000002380F858300CE0C36DA14223F48013C5
:101F5000C3654FF060030B604FF0000380F858300A
:101F600007D1072A14D8012303FA02F212F0C10F95
:101F70000ED0C868800144BF002070BD88684FF64D
:101F8000C072C7F6FF72104008308860002070BD34
:101F9000C16D41F48011C165002070BD7047000023
:101FA0007047000090F85820012A04BF02207047B3
:101FB00070B582B00022019200920268B2F1A04F87
:101FC00030D140F208324FF6006E4FF60055C5F2A0
:101FD0000002CFF6FF7ECFF6FF7552F80E40535940
:101FE00023435B071ED4D1F800C01368BCF1000F77
:101FF00023F4604424D04B6890F8386043EA4633B9
:1020000023431360535952F80E603343DB0723D147
:10201000136840F61F768968B343194341EA0C01FF
:1020200019E000BFC16D41F02001C165012100220E
:1020300080F8582002B0BDE870400846704700BFE5
:102040001460515952F80E301943C90704D1116870
:1020500040F61F73994311600021E8E770470000C4
:10206000704700002DE9F047056840F20018C5F2FE
:1020700000082E68D5F804A0D8F808720446B00706
:102080000FD51AF002000CD0E06DC00603D4E06D4D
:1020900040F40060E0652046FFF778FC25680220E8
:1020A0002860700707F01F0902D51AF0040004D158
:1020B000300749D51AF0080046D0204650F85C2F6A
:1020C000D20603D4026842F400720260EA6812F495
:1020D000406F33D12A46454508BF4FF0A042134612
:1020E000B9F1090F08BF2B46B9F1050F08BF2B4600
:1020F000B9F1000F08BF2B46AA4208BF1346DA68A1
:1021000092041BD42A68120718D5AA6852070BD468
:102110006A6822F00C026A60016821F48071016033
:102120000168C90406D509E0E06D40F01000E065E3
:1021300004F16000016841F0010101602046FFF7F1
:102140008DFF25680C202860B00602D51AF020000B
:1021500004D170062CD51AF0400029D0204650F842
:102160005C2FD20603D4026842F400520260294672
:10217000EF6CEA68454508BF4FF0A0410B46B9F146
:10218000070F08BF2B46B9F1060F08BF2B46B9F160
:10219000000F08BF2B46A94208BF0B46DB6817F4A7
:1021A000C07F6BD02046FFF753FE25686020286073
:1021B00030060CD51AF0800009D0E06D40F4803074
:1021C000E065204600F0A0F9256880202860F00531
:1021D0000DD51AF480700AD0E06D40F40030E0654F
:1021E0002046FFF7DBFE25684FF480702860B005BD
:1021F0000DD51AF400700AD0E06D40F48020E0653F
:102200002046FFF7CDFE25684FF400702860F006E9
:102210001AD51AF0100017D0E06B38B1B9F1000FE1
:102220004ED0D8F8080210F4604F0BD0E06D40F4A7
:102230008060E065206E40F0020020662046FFF7D7
:102240000FFF256810202860700558BFBDE8F08793
:102250001AF4806010D0E06D4FF4806140F480404B
:10226000E065206E40F00800206620462960BDE849
:10227000F047FFF71FBE00BFBDE8F087990106D504
:1022800002F4406103F4005289187FF48BAF29688F
:1022900049067FF587AF13F400117FF483AFA96877
:1022A000090711D4696821F060016960016821F4AF
:1022B000805101600168C9053FF574AF0AE000BFB5
:1022C000E868C007B2D1BDE7E06D40F01000E065FE
:1022D00004F16000016841F00101016062E7000063
:1022E000B0B582B000210028019155D0C16D39B937
:1022F000044600F00BF920460021216684F85810AE
:102300000268916889004FF6C071C5F6FF7102D569
:1023100093680B4093609368DB002ED4936801F1BF
:102320008051194041F08051916040F24C01C2F25D
:102330000001096842F663538909C0F23E53A1FBCC
:1023400003139909022303EB410101910199A1B102
:10235000019901390191019979B1019901390191ED
:10236000019951B1019901390191019929B101995D
:102370000139019101990029EAD19168C90011D46C
:10238000C16D4FF0010E41F01001C165016E41F0C9
:102390000101016608E000BF4FF0010E704602B077
:1023A000B0BD00BF4FF0000E9368C46D03F004038E
:1023B00004F010041B19C36D68D123F48173023338
:1023C000C3659368DB071AD140F2083C4FF600540E
:1023D0004FF60063C5F2000CCFF6FF74CFF6FF7323
:1023E0005CF804405CF803302343DB0707D1436803
:1023F000DCF8004024F47C142343CCF80030437F05
:10240000C46BD0E902C144EA4333194390F8243045
:1024100041EA0C01012B41EA034306D1816A002401
:10242000CFF6FE7404EB41410B43C46A24B1016B47
:1024300004F4787421430B43D16844F20704CFF6C7
:10244000F07421401943D1601169436B21F0406160
:10245000194311619168090743D490F83810037F3C
:10246000490041EA8331D36844F20204A34319438B
:10247000D160036914698BB144F480311161D2F8E1
:10248000C01043F6FF74A1430B4310E043F0100269
:102490004FF0010EC265704602B0B0BD24F4803129
:1024A0001161D2F8C01043F6FF7321EA0303C2F8AA
:1024B000C03090F84010136901290FD140F2FD712E
:1024C00023EA010CD0E91134D0E9131543EA0C03D7
:1024D00023431943294341F0010301E023F00103A1
:1024E00013614169136B012923F00F0302D1016AC3
:1024F00001390B431363C26D012161F30102C2650F
:10250000704602B0B0BD00007047000010B598B032
:10251000044600201790CDE91500CDE9130002A86C
:102520004421FEF755F9206840F20011C5F2000180
:1025300088424BD0B0F1A04F40F086804FF400406D
:1025400002904FF00050119002A801F007F9002806
:1025500018BFFEF791FE40F22431C2F200010A6872
:1025600041F24C00C4F20200531C0B6042B90168F6
:1025700041F400510160016801F400510191019999
:102580000168032441F001010160016801F00101CB
:1025900001910199016841F002010160006813A9ED
:1025A00000F0020001900198042013900020159083
:1025B0004FF09040149400F04BFA0220CDE9130440
:1025C00040F20040C4F6000031E000BF4FF400408C
:1025D00002904FF00050119002A801F0BFF80028BF
:1025E00018BFFEF749FE40F22431C2F200010A682A
:1025F00041F24C00C4F20200531C0B6042B9016866
:1026000041F400510160016801F400510191019908
:10261000016841F001010160006800F001000190D3
:10262000019840201390032014904FF09040002117
:10263000159113A900F00CFA12200021002200F0DD
:10264000C3FE122000F0AEFE18B010BD002804BF7B
:102650000120704790F8211049B910B5002180F889
:102660002010044600F010F82046BDE8104000217C
:1026700001224162C0E90111C0E90311416180F802
:10268000212008467047000041F24801C4F20201CF
:102690000068A1F58962904218BF704781B0086850
:1026A00040F008000860086800F0080000900098FA
:1026B00001B07047014690F82500022828D180B566
:1026C0000868D1E910CE8A6C036823F00E0303601A
:1026D000136823F480731360026822F00102026021
:1026E0000EF01F00012202FA00F0CCF80400D1E93C
:1026F00013205060486D30B1026822F4807202608D
:10270000D1E9160242600020BDE8804003E000BF2E
:102710000420C8630120012281F82520002281F8CD
:102720002420704790F82510022931D180B5016826
:10273000D0E910CE826C0B6823F00E030B600B689F
:1027400023F001030B60116821F4807111600EF019
:102750001F02012101FA02F2CCF80420D0E9133261
:102760005A60426D32B1136823F480731360D0E96C
:102770001623536080F82510826B002180F8241006
:102780000AB190470021BDE880400846704700BF6D
:102790000421C1630121002280F8251080F8242043
:1027A00008467047B0B5D0E910C30268DCF80010E5
:1027B00003F01F030424D2F800E09C400C4218BF31
:1027C0001EF0040520D102249C400C4218BF1EF0CC
:1027D000020529D1D940090714D51EF0080108BF08
:1027E000B0BD116821F00E011160012101FA03F260
:1027F000CCF80420C16380F82510416B002280F8DA
:10280000242069B9B0BD00BF1168890603D41168DE
:1028100021F004011160CCF80440016B0029F1D0D3
:10282000BDE8B040084700BF1168890606D41168AA
:1028300021F00A011160012180F82510CCF8044034
:10284000C16A0022002980F82420E9D1DAE70000DB
:1028500000284FF0010100F085802DE9F04740F29B
:10286000000CC4F2020C03684FF6F8320CF5816ECE
:10287000CBF6FD72734538BF02F580624CF6CD444D
:102880001A44CCF6CC44A2FB042903F0FC02A2F1CA
:102890000802A2FB04280CF580646FF00305D0E960
:1028A00002A607693CBF0024C4F2020405EA9905A8
:1028B000C0E91045022480F825401C6847F6F072F4
:1028C00024EA0202324346693A4387693243C669C1
:1028D0003A43076A32433A4342EA0A021A600CF565
:1028E0000262734538BF0CF50062AB180CF5086244
:1028F000C264C8F3041201FA02F540F68401BAF585
:10290000804FC4F202018364056505D10022426054
:102910001A600D6018E000BF4268D4B2013A032A81
:102920004FF000021C600D600ED8631E01EB8307A0
:1029300047F87C2F03F01F0201239340C1F8C030F9
:10294000BC313A4602E000BF00210023C0E9152156
:1029500000210122C365C16380F8252080F824107E
:10296000BDE8F0470846704790F824C0BCF1010F5D
:1029700047D04FF0010C80F824C090F825C0BCF17E
:10298000010F3BD12DE9F0414FF0020C80F825C03A
:102990004FF0000CC0F83CC0D0F800C000F14C0E65
:1029A0009EE83040DCF80060BEF1000F26F0010622
:1029B000CCF8006065601CBFD0E916456560D0E9C1
:1029C0001056012706F01F06846807FA06F6D0F8AD
:1029D00030806E60CCF804300B46102C04BF1346D8
:1029E0000A46CCF80830CCF80C20DCF80010B8F11E
:1029F000000F09D041F00E010EE000BF002180F869
:102A000024100220704700BF21F00401CCF8001010
:102A1000DCF8001041F00A01CCF80010806C01686D
:102A2000C90303D5016841F480710160BEF1000F54
:102A300005D0DEF8000040F48070CEF80000DCF82D
:102A4000000040F00100CCF800000020BDE8F0815B
:102A50002DE9F04F83B00E68002E00F0CF8000F11A
:102A6000200241F2004C009200F13847C4F6000CFD
:102A700006224FEAB725604508BF0522052D38BF5D
:102A80004FEAB722002500274FF0000801920AE024
:102A90000E6808F1010836FA08F207F1020705F19D
:102AA000040500F0AB80012202FA08FE16EA0E09C6
:102AB000EED0D1F804C003220CF0030BABF10106F9
:102AC00002FA07F4012E6FEA040A11D88468CE686E
:102AD00004EA0A04BE4034438460446824EA0E06D3
:102AE000CCF3001404FA08F42643466006E000BF65
:102AF000BBF1030F02D14FF0030B21E0C6688C68D5
:102B000006EA0A06BC402643BBF1020FC66017D195
:102B10006FF00302009B02EA580605F01C020F2426
:102B200053F806C004FA02FE0C692CEA0E0C04FAF3
:102B300002F242EA0C029A51D1F804C00CF0030BE5
:102B400002680BFA07F302EA0A021A431CF4403F38
:102B500002609DD041F26003C4F202031A6840F2A1
:102B6000004E42F001021A601A68C4F2010E02F02F
:102B700001020292029A28F003024FF6084C7244B6
:102B8000CFF6FF7C52F80C3005F00C060F24B44051
:102B9000A343019C04FA06F6334342F80C30DEF8F6
:102BA00008204B6842EA090640F20C4CDC0258BF90
:102BB00022EA0906CEF80860C4F2010CDCF8002015
:102BC0009C0242EA090658BF22EA0906CCF80060D6
:102BD000DEF804209C0342EA090658BF22EA0906EF
:102BE000CEF80460DEF80020DB0342EA090658BF95
:102BF00022EA0906CEF800604AE700BF03B0BDE84C
:102C0000F08F00000069084018BF012070470000E5
:102C1000426902EA0103914341EA0341816170473D
:102C20001823002A08BF2823C150704741F694207A
:102C3000C2F200000068704790F84120202A03D1BA
:102C400090F84020012A01D102207047242280F808
:102C500041200268136823F001031360136823F412
:102C600080531360136819431160116841F001012A
:102C70001160202180F84110002180F840100020D0
:102C80007047000090F84120202A03D190F840209E
:102C9000012A01D102207047242280F841200268D5
:102CA000136823F001031360136823F4706343EA8D
:102CB00001211160116841F001011160202180F8AB
:102CC0004110002180F840100020704781B041F28F
:102CD0006001C4F202010A6842F001020A60096858
:102CE00001F00101009100990421C4F201010A6878
:102CF0001043086001B07047002804BF01207047EE
:102D000010B590F8411031B9002180F84010044608
:102D100000F00CFA2046242180F8411090E81210AF
:102D2000C3680A68012B22F001020A6024F0706275
:102D30000A618A6822F400428A6003D14CF400429E
:102D40008A6009E04CF40442022B8A6004D14A688C
:102D500042F4006203E000BF4A6822F400624A6065
:102D60004A6800F1100C42F0007242F400424A60DE
:102D7000CA6822F40042CA609CE81C101A4342EA66
:102D80000422CA60026A42EA0C020A600A6842F03F
:102D900001020A6000212022416480F84120016381
:102DA00080F84210002010BD2DE9F04782B00446A3
:102DB00090F84100202803D194F84000012803D165
:102DC000022002B0BDE8F08701200D461746984664
:102DD00084F84000FFF72AFF216806468A6912043A
:102DE00025D4222084F84100102084F842000020DD
:102DF00060646762A4F82A806063608D49F6000C05
:102E000040F20008CFF6004CB0F5807FC0F2FF180A
:102E100026D351F8040F2B466FF39F2300EA0C07CB
:102E200008F51050FF2228E088690004D9D5204613
:102E30001921324602F006FF002871D1FFF7F6FE95
:102E4000801B21681A28EFD388690004ECD5606CD8
:102E500040F020006064202084F84100012070E0F0
:102E6000628D284651F8043F6FF39F20D7B240EAA5
:102E7000074703EA0C0308F592303B431843086008
:102E80002285608D0A9F002844D06FF39F254FF064
:102E9000FF090CF5806A10E0618D2068218550F8EB
:102EA000042FC9B202EA0A0242EA01414FF000725D
:102EB000294311430160608D60B320463946324694
:102EC00002F0E0FF60BB2068616A406A0870606AD7
:102ED000218D01306062481E2085618D0139618538
:102EE000618D0029E7D00004E5D120468021002231
:102EF0003B46009602F054FF90B9608DB0F5807F9C
:102F0000CAD32068A4F8289050F8041F424601EA6A
:102F10000A01CDE720463946324603F01FF818B1C2
:102F2000012002B0BDE8F08720682021C16142681D
:102F30004EF60003CFF600631A404260002084F88A
:102F40004110002184F8421084F8401002B0BDE81E
:102F5000F08700002DE9F04782B0044690F8410068
:102F6000202803D194F84000012803D1022002B0A8
:102F7000BDE8F08701200D469846174684F84000CA
:102F8000FFF754FE216806468A6912041BD42120EB
:102F900084F84100102084F84200002060646762D9
:102FA000A4F82A806063608D49F6000CB0F5807F3C
:102FB000CFF6004C22D3FF2222854FF0807324E00D
:102FC00088690004E3D520461921324602F03AFE12
:102FD000002840F08580FFF729FE801B21681A2811
:102FE000EED388690004EBD5606C40F0200060648B
:102FF000202084F84100012083E000BF628D002A78
:10300000228500F087804FF0007317F8010B88626B
:103010006762608D01386085501E208528466FF3F9
:103020009F20D2B240EA02404A68184302EA0C02EA
:10303000104340F400504860608D0A9F002849D03A
:1030400040F2000A6FF39F254FF0FF080CF58069EE
:10305000C0F2FF1A11E000BF618D2068218550F891
:10306000042FC9B202EA090242EA01414FF000729C
:10307000294311430160608D60B3204639463246D2
:1030800002F0AAFF60BB606A216810F8012B8A6217
:103090006062608D01386085208D01382085618DEA
:1030A0000029E8D00004E6D12046802100223B46DA
:1030B000009602F075FE98B9608DB0F5807FCBD395
:1030C0002068A4F8288050F8041F524601EA09013C
:1030D000CEE700BF20463946324602F03FFF18B126
:1030E000012002B0BDE8F08720682021C16142685C
:1030F0004EF60003CFF600631A404260002084F8C9
:103100004110002184F8421084F8401002B0BDE85C
:10311000F08700BF486808222B4600EA0C0062F3E3
:103120009F23184340F0007085E700002DE9F0432D
:1031300097B0044600201690CDE91400CDE91200A6
:1031400001A8043040214025FDF742FB206845F2EC
:103150000041C4F20001884202D017B0BDE8F083FC
:1031600001A8019500F0FAFA002818BFFEF784F8CC
:1031700041F24C05C4F20205286812AC40F001008F
:10318000286028684FF0120800F0010000900098B5
:1031900028684FF0010940F00200286028680326E3
:1031A00000F00200009000984FF4004012900427B5
:1031B0004FF090402146CDF84C80CDF850901596B8
:1031C0001697FFF745FC4FF4007012A981E8010340
:1031D00040F20040C4F600002146CDE91567FFF734
:1031E00037FC0420C4F20100016841F400210160B1
:1031F000E86840F40010E860E86800F4001000900F
:10320000009817B0BDE8F08340F2080041F6942121
:10321000C2F20000C2F2000140680A68104408606F
:103220007047000080B5032000F0FAF80F2000F08E
:1032300009F800281CBF012080BD00F057F80020CD
:1032400080BD0000B0B586B041F25801C4F2020161
:103250000A68054642F004020A60096801A801F004
:10326000040101910199694600F030FD00F050FD24
:103270004DF68361C4F21B31A0FB01014FF0FF301A
:1032800000EB914140F2586040F60002C2F20000AB
:10329000C4F2000240F2E7330024C0E90021C0E993
:1032A0000243046101F0F0F910B106B0B0BD00BFF7
:1032B00040F25860C2F2000001F050FA0028F4D148
:1032C0001E2000F06FF80F2D0CD81E20294600227A
:1032D00000F07AF840F208010020C2F200010D600F
:1032E00006B0B0BD012006B0B0BD000082B041F212
:1032F0005800C4F20200816841F0010181608168D8
:1033000001F0010101910199016841F080510160D2
:10331000006800F080500090009802B000F014BAED
:1033200070B5E0B10446D0F8880015460E4628B9BD
:10333000002084F88400204602F07CFB2420C4F89E
:1033400088002068A16A026822F00102026011B1BF
:10335000204603F0A9F9204603F022FC10B1012019
:1033600070BD00BF2168B5F5006F486820F490403B
:103370004860886820F02A00886005D1486820F0FD
:103380007F4040EA06604860086820F400602843F7
:103390000860086840F0010220460A60BDE87040FD
:1033A00003F0F6B9002848BF704700F01F01012262
:1033B00002FA01F11C2202EAD0004EF20012CEF213
:1033C000000281507047000010B54EF60C5CCEF242
:1033D000000CDCF80030C3F3022E8EF00704042C3E
:1033E00028BF0424BEF103034FF0FF3E0EFA04F49D
:1033F00038BF0023A14399400EFA03F39A431143C7
:1034000000F00F0200F160430901043A03F5644340
:103410006244002848BF02F10C03197010BD00007F
:103420004EF60C51CEF200010A684FF6FF031A4027
:1034300060F30A2242F0806040F0FD70086070473F
:1034400038B190F83A10052903D090F83A100229C3
:1034500002D10120704700BF2DE9F04381B041F255
:103460006001C4F202010A6843F6116742F00102EA
:103470000A600968CEF2000701F00101009100998D
:1034800090F83A100446002904BF002180F8391052
:1034900000F062F8D4F808C04CF0200060281FD17A
:1034A000D4E9000ED4F810800568E66A25F010050E
:1034B0002E4306600668D4E90951374047EA0E07F3
:1034C000267D47EA0807D4E90C232F43012E08BFC5
:1034D00047F48077394341EAC24141EA036220E080
:1034E000D4E90008D4E9039E0668E56A26F01006D0
:1034F0002E4306600668D4E90953374047EA0807B7
:1035000047EA0907267D47EA0E07D4E90C122F4344
:10351000012E08BF47F480773B4343EAC14141EAAB
:10352000026242EA0C0101608169002909D48169C3
:1035300004F118078CCF21F03F011143194339439F
:10354000816194F83A00002804BF012084F83A0011
:10355000002001B0BDE8F08380B586B0006840F27D
:103560000831C4F2010188424FF000010591CDE914
:103570000311CDE901112DD040F20431C4F2010153
:10358000884215D040F20031C4F2010188423BD19B
:1035900041F24C00C4F20200016841F001010160F7
:1035A000006800F00100009000980E200EE000BFBF
:1035B00041F24C00C4F20200016841F001010160D7
:1035C000006800F0010000900098E02001904FF0AA
:1035D000904012E041F24C00C4F20200016841F058
:1035E00002010160006800F00200009000980720CE
:1035F000019040F20040C4F6000003210291002136
:10360000039101A9FFF724FA06B080BD90B190F8AC
:103610003A1005290ED090F83A1001290AD1016814
:103620000A6842F001020A60042180F83A10002082
:10363000704700BF0120704747F21401C4F2000137
:1036400051F8142CB0F5007F3CD0002874D1C86E1E
:1036500002F4C06220F48070B2F5806FC8662FD18A
:1036600051F8140C012262F34A2041F8140C40F284
:103670004C00C2F200000068322250434DF68362D3
:10368000C4F21B32A0FB0202900C00BF0A68520574
:1036900011D5421C0FD00A6852050CD558B10A68E2
:1036A000520508D5012806D00A68520503D502281C
:1036B000A0F10400EAD10868400544BF0320704728
:1036C00000207047C86E02F4C06240F48070B2F50A
:1036D000806FC866F4D151F8140C012262F34A20BD
:1036E00041F8140C40F24C00C2F200000068322293
:1036F00050434DF68362C4F21B32A0FB0202900CD1
:103700000A68520511D5421C0FD00A6852050CD523
:1037100058B10A68520508D5012806D00A68520532
:1037200003D50228A0F10400EAD10868400544BF8F
:1037300003207047C4E700BF022060F34A2241F82B
:10374000142C00207047000047F20800C4F200006B
:10375000016841F480410160704700002DE9F041AB
:1037600082B00446807841F288060007C4F202065F
:1037700002D400202FE000BF56F8300C5FEAC008EA
:103780000BD456F8300C40F0805046F8300C56F808
:10379000300C00F080500190019847F20007C4F20D
:1037A0000007386840F480703860FFF73FFA05463C
:1037B0003868C00500F1D680FFF738FA401B0228B0
:1037C000F6D90320B8F1000F05D456F8301C21F0CB
:1037D000805146F8301C2168CA0713D18A0719D4D2
:1037E0004A071FD40A0725D48A062BD44A0631D4A7
:1037F0000A0637D4CA053DD48A0543D44A0549D4BC
:1038000057E000BF3268636822F003021A43326057
:103810008A07E5D53268A36822F00C021A433260A9
:103820004A07DFD53268E36822F030021A4332607B
:103830000A07D9D53268236922F0C0021A433260E0
:103840008A06D3D53268636922F440621A43326033
:103850004A06CDD53268A36922F440521A43326039
:103860000A06C7D53268E36922F440421A4332603F
:10387000CA05C1D53268236A22F440321A43326045
:103880008A05BBD53268636A22F440221A4332604B
:103890004A050ED53268A36A22F440121A43B3F5E2
:1038A000801F326005D156F87C2C42F4801246F815
:1038B0007C2C0A050ED53268E36A22F440021A43D2
:1038C000B3F5800F326005D156F87C2C42F480129B
:1038D00046F87C2CCA040ED53268236B22F0407265
:1038E0001A43B3F1807F326005D156F87C2C42F444
:1038F000801246F87C2C8A040ED53268636B22F065
:1039000040621A43B3F1006F326005D156F87C2C47
:1039100042F4801246F87C2C4A040ED53268A36B20
:1039200022F040621A43B3F1006F326005D156F8BD
:103930007C2C42F4801246F87C2C09040ED53168A8
:10394000E26B21F040511143B2F1805F316005D14B
:1039500056F87C1C41F4803146F87C1C02B0BDE86E
:10396000F08100BFB06810F4407010D0216C884224
:103970000BD0B068B16820F4407041F48031B16080
:10398000B16821F48031B160B060C0070CD1B0687B
:10399000216C20F440700843B0600020B8F1000FA3
:1039A0003FF519AF11E700BFFFF740F9054641F2B7
:1039B000883700BFB0688007E9D4FFF737F9401BAC
:1039C000B842F7D9FDE600002DE9F047002863D0A2
:1039D00042F2000AC4F2020A0446DAF800000D4678
:1039E00000F00F0088420CD2DAF8000020F00F003F
:1039F0002843CAF80000DAF8000000F00F00A842DF
:103A00004AD1216841F20808C807C4F2020803D16C
:103A1000880740F1D080B5E0606858F8082C02288B
:103A200038D003283CD1920136D5D8F80420D8F8F4
:103A3000043042F20046C3F3031302F00302D8F845
:103A400004700133C0F2F406032A04BF41F20026D9
:103A5000C0F27A06B6FBF3F2D8F80430C7F30627B3
:103A60007A43C3F34163022707EB4303B2FBF3F24C
:103A70004BF20043C0F2C4439A4259D9D8F800200F
:103A800012F0F00F49D0890752D5A16800294FD113
:103A900043E000BF910305D40120BDE8F08700BFDB
:103AA0005105F9D5D8F8001001F00C0104293FD0D8
:103AB000D8F8001001F00C01082939D0D8F800100E
:103AC00001F00C010C2933D1D8F80410D8F80420E7
:103AD00042F20047C2F3031201F00301D8F80430A8
:103AE0000132C0F2F407032904BF41F20027C0F2FB
:103AF0007A07B7FBF2F1D8F80420C3F30623594341
:103B0000C2F34162022303EB4202B1FBF2F14BF23A
:103B10000042C0F2C44291420AD9D8F800100822EB
:103B200062F307114FF00109C8F8001002E000BF6E
:103B30004FF00009D8F8001021F003010843C8F83D
:103B40000000FFF773F8064641F28837D8F8000006
:103B5000616800F00C00B0EB810F07D0FFF766F84A
:103B6000801BB842F2D90320BDE8F087216888079E
:103B700008D4B9F1000F1ED0D8F8000020F0F000F2
:103B800017E000BF480705D5D8F8000040F4E06012
:103B9000C8F80000080706D5D8F80000072262F32D
:103BA0000D20C8F80000D8F80000A26820F0F0004E
:103BB0001043C8F80000DAF8000000F00F00A84237
:103BC0001BD9DAF8000020F00F002843CAF80000E3
:103BD000FFF72CF8064641F2883700BFDAF80000FC
:103BE00000F00F00A84207D0FFF720F8801BB84272
:103BF000F4D90320BDE8F0872168480707D5D8F835
:103C00000000E26820F4E0601043C8F800000807F4
:103C100008D5D8F80000216920F4605040EAC100BE
:103C2000C8F80000D8F8000042F20041C0F2F401E8
:103C300000F00C00042808462DD0D8F8000000F051
:103C40000C00082841F20020C0F27A0023D0D8F8F6
:103C5000002002F00C020C2A1CD1D8F80420D8F85D
:103C6000043002F00302C3F30313D8F804700133E5
:103C7000032A08BF0146B1FBF3F0D8F80410C7F3DC
:103C80000627C1F341610222784302EB4101B0FBF8
:103C9000F1F000E00020D8F800104BF2C812C1F398
:103CA0000311C0F60002515C40F24C0201F01F010A
:103CB00020FA01F140F20800C2F200000068C2F2EE
:103CC00000021160BDE8F047FFF7BCBA0F220260A6
:103CD00041F20802C4F20202136803F003034360D6
:103CE000136803F0F0038360136803F4E063C360B8
:103CF00012684FF4E06303EAD202026142F200006C
:103D0000C4F20200006800F00F0008607047000075
:103D100040F24C0041F20801C2F20000C4F202017C
:103D2000006809684BF2D812C1F30221C0F6000204
:103D3000515C01F01F01C8407047000040F24C0088
:103D400041F20801C2F20000C4F2020100680968F1
:103D50004BF2D812C1F3C221C0F60002515C01F04F
:103D60001F01C8407047000041F20C01C4F202017B
:103D700051F8040C42F20042C0F2F40200F00C00D0
:103D80000428104608BF704751F8040C00F00C00DE
:103D9000082841F20020C0F27A0025D051F8043CF6
:103DA00003F00C030C2B1CBF0020704780B5D1F82A
:103DB00000C00B680CF0030CC3F3031E0B680EF17C
:103DC000010EBCF1030F08BF02460968B2FBFEF00A
:103DD000C3F30623C1F341610222584302EB4101C0
:103DE000B0FBF1F0BDE8804070470000002804BF40
:103DF000012070472DE9F04182B00446007841F27D
:103E00000006C007C4F202061ED1207880073DD408
:103E10002078000764D42078400700F1878020785C
:103E2000800600F1D980E569002D00F04282B0687B
:103E300000F00C000C2840F03181012D40F08E8103
:103E4000012002B0BDE8F081B06800F00C01F0681C
:103E5000082961D0032281F00C0122EA0000084405
:103E6000B0FA80F0400957D161683068B1F5803F01
:103E700007D0B1F5A02F40F0E38040F480203060FF
:103E8000306840F480303060E4E000BFB068F16832
:103E900000F00C00042871D001F0030180F00C0048
:103EA00081F002010844B0FA80F0400966D1E1686F
:103EB0003068002900F0E08040F480703060FEF748
:103EC000B5FE05463068400500F10A81FEF7AEFEFA
:103ED000401B0228F6D9032002B0BDE8F08100BFE4
:103EE0006169D6F89400002900F0948040F0010048
:103EF000C6F89400FEF79AFE054600BFD6F8940077
:103F000080073FF588AFFEF791FE401B0228F5D9E8
:103F1000032002B0BDE8F081306880037FF575AF03
:103F2000606800287FF471AF3EE000BFB06D5FEACB
:103F3000C00808D4B06D40F08050B065B06D00F09E
:103F400080500190019847F20007C4F200073868DA
:103F5000C0052DD4386840F480703860FEF766FEE6
:103F6000054600BF3868C00522D4FEF75FFE401B3F
:103F70000228F7D9032002B0BDE8F081306840057F
:103F800001D5E06880B17068216920F0FE4040EA08
:103F90000160706040F20800C2F200000068FFF7A4
:103FA00051F900283FF434AF012002B0BDE8F081A0
:103FB000A168D6F89000012908D0052940F0AE800C
:103FC00040F00400C6F89000D6F8900040F00100E0
:103FD000C6F89000AEE000BFA169D6F898000029AD
:103FE00000F0868040F00100C6F89800FEF71EFE43
:103FF000054600BFD6F8980080073FF514AFFEF7DE
:1040000015FE401B02284FF00300F3D902B0BDE8B3
:10401000F08100BF20F00100C6F89400FEF706FE14
:10402000054600BFD6F8940080077FF5F4AEFEF792
:10403000FDFD401B0228F5D9032002B0BDE8F08148
:1040400020F4803030603068002920F48020306017
:1040500000F0BE80FEF7EAFD054600BF3068800331
:104060003FF5D3AEFEF7E2FD401B6428F6D90320EE
:1040700002B0BDE8F08100BF20F480703060FEF730
:10408000D5FD0546306840057FF5C2AEFEF7CEFD92
:10409000401B02284FF00300F4D9B7E7306820F046
:1040A00080703060FEF7C2FD022D05460CD100BFC6
:1040B0003068800140F1B880FEF7B8FD401B02284F
:1040C0004FF00300F4D9A1E73068800140F1EA80A5
:1040D000FEF7ACFD401B02284FF00300F4D995E732
:1040E0007068216920F0FE4040EA016070608FE650
:1040F00020F00100C6F89800FEF798FD054600BFC5
:10410000D6F8980080077FF58EAEFEF78FFD401B36
:1041100002284FF00300F3D978E700BF20F0010038
:10412000C6F89000D6F89000002920F00400C6F8E8
:1041300090005DD0FEF77AFD054641F2883700BF5A
:10414000D6F89000800765D4FEF770FD401BB8429A
:10415000F6D9032002B0BDE8F08100BFF068216A03
:1041600000F003028A427FF41FAF626A6FF00F0310
:1041700000F0F00103EB021291427FF415AFA16A47
:1041800000F4FE42B2EB012F7FF40EAFE16A00F0C3
:104190007842B2EBC16F7FF407AF226B0023CFF6FA
:1041A000E07303EA025200F4C001A2F5001291424A
:1041B0007FF4FAAE616B4FF07E4202EA016100F0DB
:1041C000C06001F17E4188427FF4EEAE71E000BF35
:1041D000FEF72CFD054600BF306880037FF515AE65
:1041E000FEF724FD401B64284FF00300F4D90DE7CF
:1041F000FEF71CFD054641F2883700BFD6F8900057
:10420000800707D5FEF712FD401BB8424FF00300B0
:10421000F4D9FBE6B8F1000F3FF501AEB06D20F028
:104220008050B065FBE500BFF06848F20C01C0F2B9
:104230009F1104F1200700EA010C8ECF6FF00F00F0
:10424000D4E90C5400EB02100022CFF6E07241EAF0
:104250000C0102EA05520843A2F500124FF07E4518
:1042600040EA032005EA0465104305F17E4540EA73
:10427000C7602843F060306840F080703060F068BC
:1042800040F08070F060FEF7D1FC04463068800199
:104290000FD4FEF7CBFC001B02284FF00300F5D92A
:1042A000B4E600BFF0684FF6FC71CFF6EE6108404F
:1042B000F060002002B0BDE8F0810000002804BFDB
:1042C00001207047416A19B100210161142104E005
:1042D0004168B1F5827F02D01C2100224250B0B566
:1042E0000025856290F85D1029B980F85C5004467D
:1042F00000F056F82046022180F85D100168D0F8E1
:104300000CE00B68BEF5E06F23F040030B6098BF34
:1043100001254EF40063B3F5706F4FEA053C1CBFF6
:1043200000258562D0E90154D0E9043205F4827594
:1043300004F404442C4403F002032344846902F08F
:104340000102C5691A4404F400731A4405F03803E5
:10435000056A1A4405F08003856A1A4405F400537F
:104360001A430A600422436A0EF4706502EA14429A
:10437000446B45EA0C0503F010032A4304F00804DB
:104380001A4322434A60CA6922F40062CA610021CA
:104390000122016680F85D20BDE8B0400846704704
:1043A00080B586B0006843F20002C4F20102002129
:1043B0009042CDE90411CDE90211019102D006B07D
:1043C00080BD00BF41F24C00C4F20200426942F4D9
:1043D00080524261426902F480520092009A02685F
:1043E00042F002020260006800F0020000900098B3
:1043F000382001900220CDE902010520059040F20D
:1044000000400491C4F6000001A9FEF721FB06B0AC
:1044100080BD00007047000070470000704700003A
:1044200090F83C20012A04BF02207047B0B5D1E9C2
:104430000232D1E900CE22F47C5223F4705343EAD5
:10444000020448F2FF73CEF6F0730EEA0302224331
:1044500003F5006404EA0C0442EA040C0C6903F559
:10446000C05222404C6942EA0C02224303F56054D8
:1044700022400C6B03F5F04323401A438B6940F252
:10448000000CCC69CEF6FF7C0CEA034C14430268A6
:1044900043F20043C4F201039A4244EA0C0305D0FC
:1044A00042F60044C4F20104A24217D14FF6FF7451
:1044B000CDF60F4403EA040ED1E9084CD1E90A31E4
:1044C0000025CDF6F04505EA035343EA0E0324F038
:1044D00008552B432CF000552B430B43002153640C
:1044E00080F83C100020B0BD70470000704700000D
:1044F0007047000090F83C20012A4FF002024AD099
:1045000070B580F83D20026843F2004C546893680F
:10451000C4F2010C42F6004E6245C4F2010E01D015
:10452000724503D14D6824F470042C434FF68F7507
:10453000CFF6FF550E682C4042F6FF35C4F2010558
:104540003443AA4254600FDCB2F1804F16D040F2DF
:104550000046C4F20006B24210D040F60006C4F293
:104560000006B2420AD00EE0724507D044F20006BF
:10457000C4F20106B24201D0624504D1896823F039
:104580008003194391600121002280F83D1080F8DA
:104590003C20BDE87040104670470000C1B10429BE
:1045A00008D0082914BF47224622825C012A05D080
:1045B00016E000BF4522825C012A11D1022208299F
:1045C00010D0042914BF80F8472080F845200BE064
:1045D00090F84420012A03D1022280F8442003E00D
:1045E0000120704780F84620026801F00F00042186
:1045F000136A01FA00F023EA00011162116A08430C
:104600001062506C42F6FF31C4F2010140F40040E8
:104610008A42506410DCB2F1804F1FD040F200405B
:10462000C4F20000824219D040F60000C4F200003B
:10463000824213D01FE000BF42F60040C4F20100E6
:1046400082420BD044F20000C4F20100824205D045
:1046500043F20040C4F2010082420CD1906807216D
:10466000C0F20101014006294FF00000B9D0B1F5B8
:10467000803F08BF7047106840F0010010600020C4
:104680007047000070470000002804BF01207047F9
:1046900010B5044690F83D0028B9002084F83C008D
:1046A000204600F023F8022084F83D002068211DF8
:1046B00001F060FF012084F8480084F83E0084F88F
:1046C0003F0084F8400084F8410084F8420084F8F8
:1046D000430084F8440084F8450084F8460084F8D8
:1046E000470084F83D00002010BD000080B582B076
:1046F000006841F20041C4F2000188421ED042F637
:104700000041C4F20101884225D141F25800C4F2AF
:1047100002008168002241F40061816080680F21FD
:1047200000F40060019001981920FEF74DFE192059
:1047300002B0BDE88040FEF735BE00BF41F2580030
:10474000C4F20200016841F020010160006800F03D
:1047500020000090009802B080BD000090F83D104D
:1047600001291DD1022180F83D10016842F6FF3277
:10477000C868C4F20102914240F00100C86011DC37
:10478000B1F1804F20D040F20040C4F200008142DD
:104790001AD040F60000C4F20000814214D020E09C
:1047A0000120704742F60040C4F2010081420BD064
:1047B00044F20000C4F20100814205D043F20040FF
:1047C000C4F2010081420CD188680722C0F20102C4
:1047D0000240062A4FF00000E3D0B2F5803F08BF48
:1047E0007047086840F00100086000207047000032
:1047F00090F83C20012A4FF0020200F0AC8080B516
:1048000080F83D20D0F800C08822DCF80830CFF6D0
:10481000CE721A40CCF808200B686F2B10DD1F22D7
:10482000C0F21002934237DCB3F5005F6EDA702BF2
:1048300000F0B680B3F5805F00F08480D8E000BF60
:104840002F2B35DD4F2B39DC302B6FD0402B40F038
:10485000CF80D1F804E0C968DCF82030DCF82020F3
:1048600022F00102CCF82020DCF8182022F0F0021F
:1048700042EA011123F00A0242EA0E02CCF81810B3
:10488000CCF82020DCF808104FF68872CFF6CF72F3
:104890001140473154E000BF3F21C0F210018B426C
:1048A0003ADC2021C0F210018B423FD0302139E0A8
:1048B000E3B3102B3AD0202B38D099E0502B4DD0B9
:1048C000602B40F09580D1F804E0C968DCF8203016
:1048D000DCF8202022F01002CCF82020DCF8182090
:1048E00022F4704242EA013123F0A00242EA0E12A1
:1048F000CCF81810CCF82020DCF808104FF688729D
:10490000CFF6CF72114067311AE000BF5CD0B3F12F
:10491000101F0BD06CE000BF4021C0F210018B4291
:1049200004D07021C0F210018B4261D1DCF8081074
:104930004FF68872CFF6CF721140194341F007014C
:10494000CCF808100022012180F83D10002180F8E9
:104950003C10BDE880401046704700BFD1F804E02D
:10496000C968DCF82030DCF8202022F00102CCF805
:104970002020DCF8182022F0F00242EA011123F096
:104980000A0242EA0E02CCF81810CCF82020DCF81B
:1049900008104FF68872CFF6CF7211405731CFE72B
:1049A000D1E901E3C968DCF8082043EA0E0322F4E8
:1049B0007F4243EA01211143CCF80810DCF80810CB
:1049C00041F07701BCE700BFD1E901E3C968DCF839
:1049D000082043EA0E0322F47F4243EA01211143F7
:1049E000CCF80810DCF8081041F48041A8E700BFBB
:1049F0000122A8E770470000F0B581B004460068C6
:104A0000C5680669B10717D515F0020114D06FF01B
:104A100002010161012121778069800704D02046CD
:104A2000FFF7E8FF06E000BF204600F04BF9204604
:104A300000F062FB00202077700719D515F0040004
:104A400016D020686FF0040101610221217780698E
:104A500010F4407F04D02046FFF7CCFF06E000BFF3
:104A6000204600F02FF9204600F046FB002020777A
:104A7000300717D515F0080014D020686FF0080132
:104A8000016104212177C069800703D02046FFF728
:104A9000B1FF05E0204600F015F9204600F02CFBA0
:104AA00000202077F00619D515F0100016D02068E8
:104AB0006FF01001016108212177C06910F4407F77
:104AC00004D02046FFF796FF06E000BF204600F026
:104AD000F9F8204600F010FB00202077F00718BFFF
:104AE00015F0010006D020686FF001010161204639
:104AF00000F0BAFB16F4025F05F0800718BF002F24
:104B000002D1F00509D410E020686FF40251016170
:104B10002046FFF781FCF00507D537B120686FF418
:104B2000807101612046FFF775FC700609D515F00C
:104B3000400006D020686FF040010161204600F07F
:104B40009DFBB00609D515F0200006D020686FF057
:104B5000200101612046FFF761FCF00209D515F440
:104B6000801006D020686FF4801101612046FFF7A5
:104B7000BDFCB00209D515F4001006D020686FF412
:104B8000001101612046FFF7AFFC700209D515F452
:104B9000800006D020686FF4800101612046FFF795
:104BA000A7FC30020CD515F4000009D021686FF481
:104BB000000220460A6101B0BDE8F040FFF762BD87
:104BC00001B0F0BD2DE9F04786B0006842F6004123
:104BD000C4F2010100268842CDE90466CDE90266EF
:104BE000019603D006B0BDE8F08700BF41F24C004B
:104BF000C4F20200016840F2004941F00401016082
:104C00000168C4F6000901F00401009100990168EF
:104C100001AC41F0020101600168022701F00201CC
:104C20000091009901684FF0040841F00101016012
:104C30000068214600F00100009000984FF40050F9
:104C4000019009F58060CDE902770496CDF81480D3
:104C5000FDF7FEFE4FF48040CDE9010703254FF03C
:104C6000060A4846214603970495CDF814A0FDF79F
:104C7000EFFE4FF40040CDE9010748462146CDE95B
:104C80000375CDF81480FDF7E3FE4FF4E060CDE945
:104C900001074FF090402146CDE90375CDF814A0EF
:104CA000FDF7D6FE4FF40060CDE901070B2005901B
:104CB0004FF090402146CDE90366FDF7C9FE06B0EE
:104CC000BDE8F0877047000090F83C30012B04BF2E
:104CD000022070474FEAB202052A00F2D3812DE983
:104CE000F041DFE812F0070035018D00E1005100CE
:104CF000870100BF03681D6A1A6AA3F1804622F08B
:104D000001021A621A465C6852F818CF8F68A6F53D
:104D10009636D1F800E025F002054FEAB626072EB8
:104D200045EA07050AD80127B74017F0E50F1FBF6E
:104D3000CF6825F00C0527F004073D43072E0BD85C
:104D4000012707FA06F616F0E50F1FBFD1E9056740
:104D500024F4407434433C434FF68C76CFF6FE7611
:104D60000CEA060747EA0E075C609F614F68096915
:104D70005F631D629F6947F008079F619F6927F085
:104D800004079F6173E100BF0368D3F820C01A6A6B
:104D9000A3F1804722F480321A621A46A7F59637AB
:104DA0005D6852F8508FD1F800E08E684FEAB7275F
:104DB000072F09D80124BC4014F0E50F1EBF4C6931
:104DC00025F4803545EA04252CF4003747EA0647E8
:104DD0004FF68C76CFF6FE76033606EA080646EAEC
:104DE0000E065D601E654E6809699E641F621F6D38
:104DF00047F008071F651F6D27F004071F6536E1A0
:104E0000036843F200461D6A1A6AC4F2010622F4DE
:104E100080721A621A46D3F804C052F81CEFB342EB
:104E20008E68D1F8008025F4007545EA062505D086
:104E300042F60046C4F20106B34207D1CE6840F202
:104E4000FF47360225F44065BE433543A3F1804653
:104E5000A6F596364FEAB626072E0CD8012707FA94
:104E600006F616F0E50F1FBFD1E905672CF4405494
:104E7000374344EA071C4FF68C74CFF6FE740EEAF3
:104E8000040747EA0807C3F804C0DF614F680969EF
:104E9000DF631D62DF6947F00807DF61DF6927F024
:104EA0000407DF61E3E000BF036843F200461D6AC8
:104EB0001A6AC4F2010622F480521A621A46D3F822
:104EC00004C052F81C8FB3428E68D1F800E025F47C
:104ED000005545EA063505D042F60046C4F2010603
:104EE000B34207D1CE6844F6FF77360325F4404538
:104EF000BE433543A3F18046A6F596364FEAB62663
:104F0000072E0CD8012707FA06F616F0E50F1FBF8B
:104F1000D1E905672CF44044374344EA871C48F63E
:104F2000FF44CFF6FF6404EA080444EA0E27C3F8FE
:104F300004C0DF614F6809691F641D62DF6947F4BF
:104F40000067DF61DF6927F48067DF618EE000BF03
:104F5000036843F200461D6A1A6AC4F2010622F091
:104F600010021A621A465C6852F818CFB3428E6873
:104F7000D1F800E025F0200545EA061505D042F6F7
:104F80000046C4F20106B34207D1CE686FF0400775
:104F900025F0C00507EA06163543A3F18046A6F5BD
:104FA00096364FEAB626072E0CD8012707FA06F6E2
:104FB00016F0E50F1FBFD1E9056724F440643E43B6
:104FC00044EA860448F6FF46CFF6FF660CEA060779
:104FD00047EA0E275C609F614F6809699F631D6205
:104FE0009F6947F400679F619F6927F480679F610D
:104FF0003CE000BF0368D3F820C01A6AA3F18047E1
:1050000022F480121A621A46A7F596375D6852F8A4
:10501000508FD1F800E08E684FEAB727072F09D8E4
:105020000124BC4014F0E50F1EBF4C6925F4802517
:1050300045EA84252CF4001747EA065748F6FF4650
:10504000CFF6FF6606F5407606EA080646EA0E2623
:105050005D601E654E680969DE641F621F6D47F45E
:1050600000671F651F6D27F480671F6509021368BD
:10507000194311600021BDE8F041002280F83C2076
:10508000084670470121002280F83C2008467047FE
:10509000002804BF0120704710B5044690F83D0079
:1050A00028B9002084F83C00204600F023F80220B4
:1050B00084F83D002068211D01F05CFA012084F88D
:1050C000480084F83E0084F83F0084F8400084F8EB
:1050D000410084F8420084F8430084F8440084F8D6
:1050E000450084F8460084F8470084F83D0000201D
:1050F00010BD0000704700007047000080B5D9B1B6
:105100000B1F4FEAB30E43224FF03F0CBEF1040FCA
:1051100038BF0CEBB302825C012A1CBF012080BDAA
:10512000BEF1030F1ED8DFE80EF00319111500BF02
:10513000022280F83F2018E090F83E20012A1CBF90
:10514000012080BD022280F83E200EE0022280F87D
:1051500041200AE0022280F8422006E0022280F884
:10516000402002E0022280F84320026801F01F0183
:105170000120136A00FA01F18B431362136A0B4397
:10518000A2F18041A1F596314FEAB12106291362BF
:1051900044D8884010F0650F40D0506C42F6FF3183
:1051A000C4F2010140F400408A42506410DCB2F1C4
:1051B000804F1FD040F20040C4F20000824219D05C
:1051C00040F60000C4F20000824213D01FE000BF8E
:1051D00042F60040C4F2010082420BD044F20000CB
:1051E000C4F20100824205D043F20040C4F2010043
:1051F00082420CD190680721C0F2010101400629CA
:105200004FF0000008D0B1F5803F08BF80BD1068A6
:1052100040F001001060002080BD00BF42F6FF306A
:10522000C4F201008242C2DD43F6FF70C4F2010005
:10523000824207DC42F60040C4F201008242D3D130
:10524000D8E700BF44F20000C4F201008242D1D08E
:1052500044F60000C4F20100824202BF506C40F4E8
:1052600000405064D3E70000006840F60001C4F23B
:105270000001884218BF7047FDF7C6BF70470000A5
:1052800090F88410012904BF022070472421C0F83F
:10529000881001680A680B6822F0005223F00103AD
:1052A0000B60002343660A602021C0F8881080F854
:1052B00084300020704700007047000070470000F5
:1052C00090F88420012A04BF02207047B0B5242240
:1052D000C0F888200268D0F864E0D2F800C01368F3
:1052E000BEF1000F23F001031360936823F06063A5
:1052F00041EA0301916019D0936891684BF2083E2E
:10530000490FC0F6000E4BF210351EF80140C0F6F2
:105310000005695CC3F34263E400B4FBF1F11EF8DD
:105320000340EB5CE500B5FBF3F301E00121012351
:10533000A0F86A102021A0F86830C2F800C0C0F8B8
:105340008810002180F884100020B0BD90F88420DF
:10535000012A04BF02207047B0B52422C0F888207B
:105360000268D0F864E0D2F800C01368BEF1000F04
:1053700023F001031360936823F0604341EA0301C3
:10538000916019D0936891684BF2083E490FC0F6BE
:10539000000E4BF210351EF80140C0F60005695CA6
:1053A000C3F34263E400B4FBF1F11EF80340EB5C8D
:1053B000E500B5FBF3F301E001210123A0F86A1039
:1053C0002021A0F86830C2F800C0C0F88810002181
:1053D00080F884100020B0BD7047000070470000C6
:1053E0007047000070B5026840F62F04D369116859
:1053F00096681C40202C0BD101F0200406F080554B
:105400002D1916D0416F61B3BDE87040084700BF49
:1054100040F60F052B420CD00125C1F2000506EA2B
:10542000050C40F22015C0F200450D4015EB0C05AF
:1054300024D1C46EDD0615D5012C13D111F0100551
:1054400010D0102111629168490661D4B0F85C1047
:10545000B0F85E20B0F85E30002B18BF914240F0EB
:10546000518270BDDD0215D516F4800512D04FF4BF
:1054700080111162BDE87040FFF7B0BFDD0718BFB3
:1054800011F4807540F020819D0706F0010E00F1B7
:10549000278130E11A0606D501F0800206F40006E5
:1054A000921940F0AF825A0640F1028111F0400299
:1054B00000F0FE80016851E8001F026821F0400101
:1054C00042E80013DBB1016851E8001F026821F0D7
:1054D000400142E8001393B1016851E8001F0268DF
:1054E00021F0400142E800134BB1016851E8001F70
:1054F000026821F0400142E80013002BDAD120219C
:10550000C0F8881000218167BDE8704000F096BBAC
:10551000D0F880100A685368B0F85C4099B200294E
:1055200000F0B880A14280F0B580A0F85E3011682C
:10553000890600F1A38000BF016851E8001F0268DE
:1055400021F4807142E80013E3B1016851E8001FC3
:10555000026821F4807142E800139BB1016851E8B0
:10556000001F026821F4807142E8001353B1016802
:1055700051E8001F026821F4807142E80013002BFB
:10558000DAD100BF016851E8021F026821F0010171
:1055900042E80213BBB3016851E8021F026821F020
:1055A000010142E8021373B3016851E8021F026867
:1055B00021F0010142E802132BB3016851E8021FF8
:1055C000026821F0010142E80213002BDAD11AE04F
:1055D000016851E8021F026821F0400142E802130D
:1055E000DBB1016851E8021F026821F0400142E886
:1055F000021393B1016851E8021F026821F04001D3
:1056000042E802134BB1016851E8021F026821F021
:10561000400142E80213002BDAD12021C0F88C109F
:105620000021C166016851E8001F026821F01001E5
:1056300042E80013DBB1016851E8001F026821F065
:10564000100142E8001393B1016851E8001F02689D
:1056500021F0100142E800134BB1016851E8001F2E
:10566000026821F0100142E80013002BDAD1D0F8D3
:10567000801004460846FDF71DF820460221016708
:10568000B0F85C10B0F85E20891A89B2BDE87040AD
:10569000FFF712BE8C427FF4E4AE126892067FF5EB
:1056A000E0AE02220267BDE87040FFF705BE00BF12
:1056B0001A0240F1B38111F0804200F0AF81BDE8E1
:1056C0007040FFF789BE00BF01251562D0F89050E9
:1056D00045F00105C0F890509D0706F0010E0AD56F
:1056E000BEF1000F07D002241462D0F8904044F0BD
:1056F0000404C0F890405C070AD5BEF1000F07D043
:1057000004251562D0F8905045F00205C0F890507D
:105710001D070CD501F0200555EA0C0507D008251A
:105720001562D0F8905045F00805C0F890501D055E
:105730000BD511F0806508D04FF400651562D0F8E4
:10574000905045F02005C0F89050D0F89050002DB2
:105750003FF487AE9B060BD501F0200106F0805385
:10576000C91805D0416F19B1044688472268204600
:10577000D0F89010926801F0280102F040028918D8
:1057800006D10446FFF72CFE0020C4F8900070BD3F
:10579000016851E8001F026821F4907142E800138B
:1057A000DBB1016851E8001F026821F4907142E802
:1057B000001393B1016851E8001F026821F4907151
:1057C00042E800134BB1016851E8001F026821F460
:1057D000907142E80013002BDAD14FF6FE71CEF63D
:1057E000FF7100BF026852E8022F03680A4043E8D5
:1057F0000226C6B1026852E8022F03680A4043E855
:10580000022686B1026852E8022F03680A4043E884
:10581000022646B1026852E8022F03680A4043E8B4
:105820000226002EDED1C16E012924D1016851E883
:10583000001F026821F0100142E80013DBB101688B
:1058400051E8001F026821F0100142E8001393B1F3
:10585000016851E8001F026821F0100142E80013BE
:105860004BB1016851E8001F026821F0100142E8C5
:105870000013002BDAD12021C0F88C100021C16662
:10588000026841679168490640F1C480016851E8A7
:10589000021F026821F0400142E80213DBB10168F7
:1058A00051E8021F026821F0400142E8021393B15F
:1058B000016851E8021F026821F0400142E802132A
:1058C0004BB1016851E8021F026821F0400142E833
:1058D0000213002BDAD1D0F88010002900F09A8052
:1058E00046F6FD02C0F60002044608468A63FCF74D
:1058F00019FF00283FF4B5ADD4F88000816BBDE8F6
:1059000070400847891A00BF026852E8002F0368F8
:1059100022F4907243E80026DEB1026852E8002FBC
:10592000036822F4907243E8002696B1026852E8B8
:10593000002F036822F4907243E800264EB10268FB
:1059400052E8002F036822F4907243E80026002EEC
:10595000DAD14FF6FE72CEF6FF7200BF036853E84D
:10596000023F0668134046E80235C5B1036853E8B4
:10597000023F0668134046E8023585B1036853E8E4
:10598000023F0668134046E8023545B1036853E814
:10599000023F0668134046E80235002DDED1202282
:1059A000C0F88C200022C266426700BF026852E83D
:1059B000002F036822F0100243E80026DEB10268DF
:1059C00052E8002F036822F0100243E8002696B147
:1059D000026852E8002F036822F0100243E8002614
:1059E0004EB1026852E8002F036822F0100243E82B
:1059F0000026002EDAD1022289B20267BDE870408B
:105A0000FFF75ABC816F00293FF42BADBDE8704011
:105A1000084700BFBDE87040FFF7E2BCDA017FF540
:105A200020ADB1F1FF3FC8BF70BDBDE87040FFF7CA
:105A300045BC00002DE9F04397B0044601A80025BD
:105A400008303C211695CDE91455CDE91255FAF7E9
:105A5000BFFE206843F60001C4F20101884203D072
:105A600017B0BDE8F08300BF0120CDE9010501A812
:105A7000FDF774FE002818BFFBF7FEFB41F24C0057
:105A8000C4F20200416940F2440841F4804141619E
:105A90004169002701F48041009100990168C4F236
:105AA000020841F002010160006812A900F0020042
:105AB00000900098C020129012201390072016909A
:105AC00040F20040C4F60000CDE91477FCF7C0FFB7
:105AD00040F2904508F58560C2F2000518214FF0AC
